{
  "transactions": [
    {
      "hash": "0x631b74e78afb81d47c18dfc569f49aa8a13658daa2273de1c094314047672e69",
      "transactionType": "CALL",
      "contractName": null,
      "contractAddress": "0xeb85efbab5a4a735bb157b9f63422d2daf616ef9",
      "function": "submitTransaction(address,uint256,bytes)",
      "arguments": [
        "0xEb85Efbab5a4A735bB157B9F63422d2Daf616eF9",
        "0",
        "0x2f2ff15d408a36151f841709116a4e8aca4e0202874f7f54687dcb863b1ea4672dc9d8cf0000000000000000000000005623dde38ca6ccd625ce8fc5ea7a640097571966"
      ],
      "transaction": {
        "from": "0x6cc5c2ab53f1876f3e663e5a4b496d6a2326665d",
        "to": "0xeb85efbab5a4a735bb157b9f63422d2daf616ef9",
        "gas": "0x4eba2",
        "value": "0x0",
        "input": "0xc6427474000000000000000000000000eb85efbab5a4a735bb157b9f63422d2daf616ef90000000000000000000000000000000000000000000000000000000000000000000000000000000000000000000000000000000000000000000000000000006000000000000000000000000000000000000000000000000000000000000000442f2ff15d408a36151f841709116a4e8aca4e0202874f7f54687dcb863b1ea4672dc9d8cf0000000000000000000000005623dde38ca6ccd625ce8fc5ea7a64009757196600000000000000000000000000000000000000000000000000000000",
        "nonce": "0xa",
        "chainId": "0x2105"
      },
      "additionalContracts": [],
      "isFixedGasLimit": false
    }
  ],
  "receipts": [
    {
      "status": "0x1",
      "cumulativeGasUsed": "0x2c386a7",
      "logs": [
        {
          "address": "0xeb85efbab5a4a735bb157b9f63422d2daf616ef9",
          "topics": [
            "0x3f6db45da5513bd4fe9f8a31e60ea668bdd4bca57e30a85a9a26f90c9fbcb56c",
            "0x0000000000000000000000000000000000000000000000000000000000000000",
            "0x000000000000000000000000eb85efbab5a4a735bb157b9f63422d2daf616ef9"
          ],
          "data": "0x0000000000000000000000000000000000000000000000000000000000000000000000000000000000000000000000000000000000000000000000000000004000000000000000000000000000000000000000000000000000000000000000442f2ff15d408a36151f841709116a4e8aca4e0202874f7f54687dcb863b1ea4672dc9d8cf0000000000000000000000005623dde38ca6ccd625ce8fc5ea7a64009757196600000000000000000000000000000000000000000000000000000000",
          "blockHash": "0xb9b02647235b24a8b2512695ece2894c878f50a5ef5aa1fe4e24dc5244a1d11c",
          "blockNumber": "0x1bc9a79",
          "transactionHash": "0x631b74e78afb81d47c18dfc569f49aa8a13658daa2273de1c094314047672e69",
          "transactionIndex": "0xad",
          "logIndex": "0x1f9",
          "removed": false
        },
        {
          "address": "0xeb85efbab5a4a735bb157b9f63422d2daf616ef9",
          "topics": [
            "0x924813d717e221b5f46dcd8a56da1679e4612584ab3237d55e5faabf6f6a3079",
            "0x0000000000000000000000000000000000000000000000000000000000000000",
            "0x0000000000000000000000006cc5c2ab53f1876f3e663e5a4b496d6a2326665d"
          ],
          "data": "0x",
          "blockHash": "0xb9b02647235b24a8b2512695ece2894c878f50a5ef5aa1fe4e24dc5244a1d11c",
          "blockNumber": "0x1bc9a79",
          "transactionHash": "0x631b74e78afb81d47c18dfc569f49aa8a13658daa2273de1c094314047672e69",
          "transactionIndex": "0xad",
          "logIndex": "0x1fa",
          "removed": false
        }
      ],
      "logsBloom": "0x000000000000000000000000000004000000000000000000000000000000000a0000000000000000000000000000000000000000000080000000000000000000000000000000010000000000000000000000000080000000000000000000000000000000020000000000000000000800000000000000000000000000000000000000800000000000000000000000000000000000000000000000000000080000002000000000000000000000000000200000000000000000000000000001040000000000000000000000000000000000000000000000000000000000000020000000000000000000000000000000000000000000100080000200000000000000",
      "type": "0x2",
      "transactionHash": "0x631b74e78afb81d47c18dfc569f49aa8a13658daa2273de1c094314047672e69",
      "transactionIndex": "0xad",
      "blockHash": "0xb9b02647235b24a8b2512695ece2894c878f50a5ef5aa1fe4e24dc5244a1d11c",
      "blockNumber": "0x1bc9a79",
      "gasUsed": "0x35d4a",
      "effectiveGasPrice": "0xabba3",
      "from": "0x6cc5c2ab53f1876f3e663e5a4b496d6a2326665d",
      "to": "0xeb85efbab5a4a735bb157b9f63422d2daf616ef9",
      "contractAddress": null,
      "l1BaseFeeScalar": "0x8dd",
      "l1BlobBaseFee": "0x2eb390d",
      "l1BlobBaseFeeScalar": "0x101c12",
      "l1Fee": "0x1efe8ff71",
      "l1GasPrice": "0x1517aa45",
      "l1GasUsed": "0x80e"
    }
  ],
  "libraries": [],
  "pending": [],
  "returns": {},
  "timestamp": 1745064406,
  "chain": 8453,
  "commit": "b984ed8"
}